{
  "contractName": "Marketplace",
  "abi": [
    {
      "constant": true,
      "inputs": [],
      "name": "count",
      "outputs": [
        {
          "name": "",
          "type": "uint256"
        }
      ],
      "payable": false,
      "stateMutability": "view",
      "type": "function",
      "signature": "0x06661abd"
    },
    {
      "constant": true,
      "inputs": [
        {
          "name": "",
          "type": "uint256"
        }
      ],
      "name": "transactions",
      "outputs": [
        {
          "name": "id",
          "type": "uint256"
        },
        {
          "name": "amount",
          "type": "uint256"
        },
        {
          "name": "sender",
          "type": "address"
        },
        {
          "name": "reciever",
          "type": "address"
        }
      ],
      "payable": false,
      "stateMutability": "view",
      "type": "function",
      "signature": "0x9ace38c2"
    },
    {
      "constant": false,
      "inputs": [
        {
          "name": "addressReciever",
          "type": "address"
        }
      ],
      "name": "createTransaction",
      "outputs": [],
      "payable": true,
      "stateMutability": "payable",
      "type": "function",
      "signature": "0xa23927ee"
    },
    {
      "constant": true,
      "inputs": [],
      "name": "getCount",
      "outputs": [
        {
          "name": "",
          "type": "uint256"
        }
      ],
      "payable": false,
      "stateMutability": "view",
      "type": "function",
      "signature": "0xa87d942c"
    }
  ],
  "bytecode": "0x60806040526000805534801561001457600080fd5b506103cc806100246000396000f3fe608060405260043610610062576000357c0100000000000000000000000000000000000000000000000000000000900463ffffffff16806306661abd146100675780639ace38c214610092578063a23927ee1461014e578063a87d942c14610192575b600080fd5b34801561007357600080fd5b5061007c6101bd565b6040518082815260200191505060405180910390f35b34801561009e57600080fd5b506100cb600480360360208110156100b557600080fd5b81019080803590602001909291905050506101c3565b604051808581526020018481526020018373ffffffffffffffffffffffffffffffffffffffff1673ffffffffffffffffffffffffffffffffffffffff1681526020018273ffffffffffffffffffffffffffffffffffffffff1673ffffffffffffffffffffffffffffffffffffffff16815260200194505050505060405180910390f35b6101906004803603602081101561016457600080fd5b81019080803573ffffffffffffffffffffffffffffffffffffffff169060200190929190505050610233565b005b34801561019e57600080fd5b506101a7610397565b6040518082815260200191505060405180910390f35b60005481565b60016020528060005260406000206000915090508060000154908060010154908060020160009054906101000a900473ffffffffffffffffffffffffffffffffffffffff16908060030160009054906101000a900473ffffffffffffffffffffffffffffffffffffffff16905084565b600080815480929190600101919050555060806040519081016040528060005481526020013481526020013373ffffffffffffffffffffffffffffffffffffffff1681526020018273ffffffffffffffffffffffffffffffffffffffff168152506001600080548152602001908152602001600020600082015181600001556020820151816001015560408201518160020160006101000a81548173ffffffffffffffffffffffffffffffffffffffff021916908373ffffffffffffffffffffffffffffffffffffffff16021790555060608201518160030160006101000a81548173ffffffffffffffffffffffffffffffffffffffff021916908373ffffffffffffffffffffffffffffffffffffffff1602179055509050508073ffffffffffffffffffffffffffffffffffffffff166108fc349081150290604051600060405180830381858888f19350505050158015610393573d6000803e3d6000fd5b5050565b6000805490509056fea165627a7a723058204e9719081f333095729d6e440e1bad8a98de19b43389f702795f3d503110d34f0029",
  "source": "pragma solidity >=0.4.22 <0.9.0;\r\n\r\ncontract Marketplace{\r\n    uint public count = 0;\r\n    mapping(uint => Transaction) public transactions;\r\n\r\n    struct Transaction{\r\n        uint id;\r\n        uint amount;\r\n        address sender;\r\n        address payable reciever;\r\n    }\r\n\r\n    function createTransaction(address payable addressReciever) public payable{\r\n        count ++;\r\n        transactions[count] = Transaction(count, msg.value, msg.sender, addressReciever);\r\n        addressReciever.transfer(msg.value);\r\n    }\r\n\r\n    function getCount() public view returns (uint){\r\n        return count;\r\n    }\r\n}",
  "sourcePath": "D:/Projects/myblockchainacademy/contracts/Marketplace.sol",
  "compiler": {
    "name": "solc",
    "version": "0.5.0+commit.1d4f565a.Emscripten.clang"
  },
  "schemaVersion": "3.0.1",
  "updatedAt": "2022-02-23T23:08:03.125Z",
  "devdoc": {
    "methods": {}
  },
  "userdoc": {
    "methods": {}
  }
}